:020000040040BA
:1000000038304020B91C4000B71C4000B71C4000ED
:10001000B71C4000B71C4000B71C400000000000A7
:10002000000000000000000000000000B71C4000BD
:10003000B71C400000000000B71C4000B71C400087
:10004000B71C4000B71C4000B71C4000B52440005E
:10005000B71C4000B71C4000B71C4000B71C400054
:10006000B71C40000000000031164000451640005B
:1000700059164000B71C4000B71C4000B71C400098
:100080006D16400081164000B71C4000B71C4000B0
:10009000B71C4000B71C4000B71C4000B71C400014
:1000A000B71C4000B71C4000B71C4000B71C400004
:1000B000B71C4000B71C4000B71C4000B71C4000F4
:1000C000B71C4000B71C4000B71C4000B71C4000E4
:1000D000B71C4000B71C4000B71C4000B71C4000D4
:1000E000B71C4000B71C4000B71C4000B71C4000C4
:1000F000B71C4000B71C4000B71C4000B71C4000B4
:10010000B71C4000B71C4000B71C4000B71C4000A3
:10011000B71C4000000000000000000000000000CC
:10012000B71C4000B71C4000B71C4000B71C400083
:10013000B71C4000B71C4000B71C4000B71C400073
:10014000B71C4000B71C4000B71C4000B71C400063
:10015000B71C4000B71C4000B71C4000B71C400053
:10016000B71C4000B71C400010B5054C237833B9CC
:10017000044B13B10448AFF300800123237010BD7A
:10018000F00A4020000000009C8C49000C4B43B159
:100190000C480D4910B5AFF300800C48036823B933
:1001A00010BD0A48036833B97047094B002BF7D0DC
:1001B000BDE810401847064B002BF5D0184700BF8C
:1001C000000000009C8C4900F40A40209C8C4900EF
:1001D00000000000034B1B6843F4802319430160B7
:1001E000002070470C0B402041B9094A136823F0E6
:1001F000807313600268134303607047044A1368F6
:1002000043F080731360026813430360704700BFBC
:100210000C0B40200268034B1B681943114301601B
:10022000704700BF0C0B4020036823EA0101024B1A
:100230001B681943016070470C0B4020826883687B
:100240009A4203D0826883689342FBD11846704774
:10025000C068704770B506460D46046804F48034E3
:100260004FF4803109480A4B98472DB94FF0FF33BE
:10027000736024B9002070BD013D7560F9E74FF44B
:1002800080310248034B9847F4E700BF30180E4016
:100290002902400015024000F0B587B004460E4622
:1002A00017468160027383610025056107209D4B1D
:1002B0009847206001950595022302930390072338
:1002C00004938DF8147001A93046974B9847401B52
:1002D00018BF0120404208B107B0F0BD2568A879D9
:1002E00000EB400040008F4B984760600023019373
:1002F0000493059307238DF804300223029303909F
:10030000AB7903EB43035B000493237B8DF814303C
:1003100001A9A068844B9847003018BF01204042D3
:100320000028D9D127686068BB7903EB43067600C3
:100330000736B6B23A4606370021DFF8F0C192F828
:1003400001E0157845EA0E2585EA410111F0807F2C
:1003500018BF81EA0C010232BA42F0D1027843EAB6
:10036000022383EA410212F0807F03D082F400026C
:1003700082F01B02A6F10807012F12DD0123DFF82E
:10038000ACE1C1184D78C15C41EA052181EA420225
:1003900012F0807F18BF82EA0E0202339BB2BB428A
:1003A000EFDB304410F8083C83EA420212F0807F11
:1003B00003D082F4000282F01B0222F07F4500236A
:1003C000019305938DF80460360A8DF805600223C9
:1003D0000293CDF80CD003230493237B8DF81430C3
:1003E00001A9A068504B984728B34FF0FF33AB42A8
:1003F00040F08B802568A87998B100230133DAB2E8
:100400009042FBD86268431EDBB2013303EB430327
:1004100002EB4301002053791844C0B206329142E6
:10042000F9D140003F4B98476061AB7973B1002729
:100430000126BE4637E09DF802209DF8003043EAD1
:1004400002439DF8012043EA0223D0E76FF0030046
:1004500042E70130C0B262685319197981421CD356
:100460005B79002BF5D062682A445379002BF0D0D9
:1004700033461178626902F81310626902EB430295
:1004800050700133DBB262682A44991B92F805C0B0
:10049000C9B28C45EDD81E46DBE70137FFB22368B1
:1004A0009B799F4207D207EB47035A0015466368C2
:1004B00013447046D4E75BB31046013BDBB2013313
:1004C00003EB430302EB4302002143791944C9B211
:1004D00006308242F9D1F1B162691378092B0FD04D
:1004E00000230133DBB28B420CD012F8020F092833
:1004F000F7D15BB2B3F1FF3F10D023770020EBE6DA
:100500000023F6E76FF00300E6E66FF00300E3E692
:100510006FF00300E0E66FF00300DDE66FF003002C
:10052000DAE600BFB52B4000351A40001B00800002
:1005300003689A79D2B110B4446823788B420ED004
:10054000A31D013AD2B2013202EB420204EB420295
:10055000934209D01C4613F8060B8842F8D1B4F830
:1005600001005DF8044B70470020FAE70020704757
:1005700030B587B000230193049305938DF80410E0
:100580000B0A8DF8053002230293039203689A79CF
:10059000BAB14468B4F801308B420FD0A31D013AC0
:1005A000D2B2013202EB420204EB4202934216D075
:1005B0001C460633B4F801508D42F7D1E27801327F
:1005C000D2B20492037B8DF8143001A98068054BE8
:1005D0009847003018BF0120404207B030BD0022CC
:1005E000EFE700BFE11A400000B589B08DF80720A1
:1005F0000023039307938DF80C10090A8DF80D1052
:10060000022304930DF10703059301230693037B53
:100610008DF81C3003A98068044B9847003018BF40
:100620000120404209B05DF804FB00BFE11A400020
:100630008269074B03EB52135B02D96B02F01F0276
:10064000012303FA02F20A420CBF18460020704749
:100650000707200030B587B004460D46002205216B
:100660000D4B98470023019305938DF80400000A71
:100670008DF8050002230293039509230493237B3D
:100680008DF8143001A9A068044B9847003018BFBA
:100690000120404207B030BD31054000351A40000E
:1006A000F0B585B004460E46174D184F2046A847B2
:1006B00028B301A92046B847034610BB9DF8043073
:1006C000626912F81320092AF0D1227F9B1A337035
:1006D0009DF8053073709DF808309DF806101A09D2
:1006E00042EA011272809DF8072003F00F0343EAEB
:1006F0000213B3809DF80930B371002301E06FF05D
:100700000303184605B0F0BD310640005506400011
:1007100010B51048104B98473E2100200F4B9847CA
:100720000F4CA0470028FCD00E4B98470E4A0F4BA9
:100730009A620F4CA0470028FCD002200D4B98472E
:1007400000200D4B98470D4B98470D48024B98479A
:1007500010BD00BF000E27078D1E4000311740005E
:100760008517400095174000013F182000060E40F5
:10077000A517400095164000CD164000811D400091
:1007800000A3E111002A54D02DE9F84F9246064605
:100790000F468A44DFF8B880274DDFF8B89006E0AE
:1007A00021464046A8470028FAD1BA453ED017F85E
:1007B000014B4645F4D04E4516D0204B9E4219D0F1
:1007C0001F4B9E421CD01F4B9E421FD01E4B9E4271
:1007D00024D01E4B9E42E8D1DFF87CB021461B4856
:1007E000D8470028FAD1E0E721464846A847002824
:1007F000FAD1DAE721461148A8470028FAD1D4E710
:1008000021460F48A8470028FAD1CEE7DFF848B0C4
:1008100021460C48D8470028FAD1C6E7DFF838B09F
:1008200021460948D8470028FAD1BEE70020BDE894
:10083000F88F0020704700BF811B4000001A0E4057
:10084000001C0E40004002400080024000C00240F8
:1008500000080E40000A0E40891C400010B50446F6
:10086000104B984780232360636843F00103636063
:10087000636843F010036360636823F08003636080
:1008800000212046084B9847636823F00203636009
:10089000636823F00403636000212046034B9847FC
:1008A00010BD00BFD51740000118400017184000C8
:1008B0002DE9F04104460D46164615491846154BDC
:1008C0009847074600231A4629682046DFF85C80CF
:1008D000C0470822296820460F4B9847FAB229687A
:1008E00020460E4B98470822296820460C4B984713
:1008F0007208296820460B4B984786F0010202F0E7
:10090000010229682046084B9847BDE8F08100BFE6
:1009100080D1F008F3184000DF18400009194000AA
:10092000991840005D1840007B18400031194000C4
:1009300008B5436813F0040F06D009680F2900D9E1
:1009400008BD064B984708BD09680329F8D801235C
:1009500003FA01F1C943014B9847F1E70118400040
:100960001AB110B40C46114406E00020704714F888
:10097000013BC360A1420CD043F69923026912F0F7
:10098000020FF4D1013BF9D16FF002005DF8044B86
:1009900070470020FAE73AB170B415460C460D4492
:1009A000FF2640F2012112E000207047C66043F6A6
:1009B0009923026931EA020204D0013BF9D16FF0B8
:1009C00002000EE0836804F8013BA5420BD043F619
:1009D0009923026912F0020FE8D1013BF9D16FF0BF
:1009E000020070BC70470020FBE700002DE9F041D9
:1009F00080B90C469046002A0FDD8F18084E094D2D
:100A0000306821462B6898470134BC42F8D14046F3
:100A1000BDE8F0814FF0FF38F9E78046F7E700BF07
:100A2000980F4020900F40200138022815D82DE95A
:100A3000F0410E4614469AB10D46DFF838800C4F4F
:100A4000D8F8000015F8011B3B68984700280ADB1E
:100A5000A81B013CF4D1BDE8F0814FF0FF30704796
:100A60001046BDE8F0814FF0FF30BDE8F08100BFD7
:100A7000940F4020980F40202DE9F0414FF40042A0
:100A80009E4B5A60BFF34F8FBFF36F8F9C4B00227A
:100A9000C3F850225A6942F400325A61BFF34F8FB3
:100AA000BFF36F8FD3F88070C7F34E3607F007009F
:100AB0000430C7F3C907B7FA87FE0EF01F0EBFF365
:100AC0004F8F4FF0FF3404FA00FC06FA00F004FAEE
:100AD0000EF407FA0EFE1D463A46734640EA03013D
:100AE000C5F86012013A2344B2F1FF3FF6D1013E4E
:100AF0006044B6F1FF3FEFD1BFF34F8F804B5A698F
:100B000042F480325A61BFF34F8FBFF36F8F7D4A3B
:100B10007D495160A1F580715160BFF34F8FBFF3E4
:100B20006F8FD3F8902222F00102C3F89022D3F8FD
:100B3000942222F00102C3F89422BFF34F8FBFF337
:100B40006F8F0A20714CA0470B20A0470C20A047B4
:100B50001020A0471120A0476D4E4FF48078C6F8B2
:100B60001080C6F8A080C6F830806A4C4FF400654B
:100B70006561C4F8A0506566C4F89050656525624B
:100B8000C4F88450236F23F400632367636F23F456
:100B900000636367C4F8C050C4F8D450C4F8B050C0
:100BA0004FF400132366C4F8903063656362C4F8A1
:100BB0008030226F22F400122267626F22F400124A
:100BC00062676360544AD2F8143143F01003C2F8EC
:100BD000143102F5B22210231366C2F89030536527
:100BE0005362C2F88030116F19431167516F194376
:100BF0005167536008222266C4F8902062656262E1
:100C0000C4F88020216F21F008012167616F21F075
:100C10000801616762602366C4F8903063656362AF
:100C2000C4F88030226F22F010022267626F22F037
:100C300010026267636000234FF400524FF060516E
:100C40003046364FB84700234FF080424FF0605196
:100C50003046B8470123FF224FF000613046B847C5
:100C600001233F224FF000612D48B84701234FF484
:100C7000C0324FF000612046B847012342464FF092
:100C800000613046B84701232A464FF000613046E4
:100C9000B84701234FF400224FF000612148B847C4
:100CA00000234FF400724FF080513046B8474FF4A4
:100CB000007130461C4B98474FF0805174201B4CFC
:100CC000A0474FF080517520A0474FF0805176200B
:100CD000A0474FF080517B20A0474FF06051182073
:100CE000A0474FF060510620A0474FF060515320BD
:100CF000A04753200E4B9847BDE8F08150180E4096
:100D000000ED00E0000C0E400C08005AB517400042
:100D100000120E40000E0E4000800840D513400027
:100D200000160E4000140E40DD124000B1144000C9
:100D30007914400030B40468B4F5A07F02D340F2C7
:100D40003F1404601468B4F5A07F02D340F23F144E
:100D500014600C68B4F5F07F02D340F2DF140C602D
:100D60001C68B4F5F07F02D340F2DF141C60046805
:100D70001568AC4201D9056014600A68186882429F
:100D800001D908601A6030BC7047000010B582B00D
:100D900006200A4B9847002303222C210848094CBF
:100DA000A04700230193019BFE2B05D8019B013333
:100DB0000193019BFE2BF9D902B010BD95144000A0
:100DC000008000402918400070B582B005460E46EC
:100DD00014460620144B9847002303222946134843
:100DE000134DA84700230193019BFE2B05D8019BBF
:100DF00001330193019BFE2BF9D90CB902B070BDF0
:100E000006200C4B98472246314608480A4B984723
:100E100000230193019B5E2BF0D8019B01330193CA
:100E2000019B5E2BF9D9E9E7951440000080004052
:100E300029184000791440006109400030B583B0A2
:100E400004460D4606200A4B98472A462146094883
:100E5000094B984700230193019BFE2B05D8019B6A
:100E600001330193019BFE2BF9D903B030BD00BFC4
:100E7000791440000080004061094000014630B113
:100E8000034A044B013BFDD19142FAD870477047A9
:100E9000A1860100A086010000B583B058B948239F
:100EA0008DF8073001220DF107013620044B9847D9
:100EB00003B05DF804FBE8238DF80730F2E700BFCC
:100EC000C90D400010B584B0ADF80E00013A0244DF
:100ED000ADF80C20ADF80A10013B1944ADF808102C
:100EE000030A8DF804308DF80500C2F307238DF84E
:100EF00006308DF8072004220DEB02012A20104C49
:100F0000A047002211461046A0479DF80B308DF8EF
:100F100004309DF80A308DF805309DF809308DF8C1
:100F200006309DF808308DF8073004220DEB0201E1
:100F30002B20A047002211461046A04704B010BD48
:100F4000C90D400008B5002211462920014B9847E1
:100F500008BD00BFC90D400010B4C0F30744C0F382
:100F60000721064B03F570721C705970987003339B
:100F70009342F9D15DF8044B704700BF100B40203D
:100F800010B584B0ADF80600ADF80410030A8DF872
:100F90000C30C0B28DF80D008DF80E308DF80F00BA
:100FA000042203A92A200E4CA04700221146104615
:100FB000A0479DF805208DF80C209DF804308DF891
:100FC0000D308DF80E208DF80F30042203A92B2050
:100FD000A047002211461046A04704B010BD00BF34
:100FE000C90D40002DE9F04387B08146032706AEC6
:100FF00046F8087D5D4D28465D4B984700240094D7
:101000005C4B3A4631462846DFF89881C047224675
:1010100039462846584B984731462846574B9847FB
:1010200001202860686122462146554EB047C820FD
:10103000544DA847224621461120B047C820A84752
:1010400081238DF80A308DF80B4010264FF00108EF
:101050004B4F254642460DF10A01FB20B8479DF84B
:101060000A3001338DF80A300395039BFE2B05D817
:10107000039B01330393039BFE2BF9D92A46294690
:10108000D320B8470620404B984742460DF109014E
:1010900036483E4B98470395039BFE2B05D8039B90
:1010A00001330393039BFE2BF9D99DF80930B3401C
:1010B0001C4342460DF10B01FB20B8470395039AF0
:1010C00040F6FE739A4206D81A46039B01330393F7
:1010D000039B9342F9D9083E16F1080FBAD149F2A1
:1010E00088439C4203D0012007B0BDE8F08306ADE1
:1010F000482305F8013D012229463620204EB047FD
:101100006420204CA04704238DF817300122294683
:10111000CF20B0476420A04706238DF81730012266
:1011200029463A20B0476420A047002211461320E8
:10113000B0476420A047164B98476420A047002082
:10114000144B98476420A047B9F80430B9F8002040
:1011500000210846104CA047D9F808000F4B9847CB
:10116000002108460E4B98470020BDE70080004054
:101170005D084000002D3101991840003109400000
:10118000C90D40007D0E40007914400097094000D1
:10119000450F4000990E4000C50E4000590F400019
:1011A000810F4000B10840002DE9F04184B0039068
:1011B0000291019204AA42F8103D134601AA02A925
:1011C00003A8224CA047BDF80C00BDF80810009BF6
:1011D00001335B1A019A0132121A9BB292B21C4C73
:1011E000A0471C4B98470399019D691A009D013542
:1011F000029BED1A01FB0555174BA3FB05231B0AA8
:1012000063B15C1EDFF858804FF47077134E394697
:101210004046B047013CB4F1FF3FF8D10E49A1FB75
:101220000531090A01EB8101A5EB811101EB4101B7
:101230000B480A4B98474FF4F0734FF4A07200210B
:101240000846034CA04704B0BDE8F081350D4000CE
:10125000C50E40008D0D4000CDCCCCCC3D0E4000E5
:10126000100B402010B584B003900291013A104455
:101270000190013B194404AB43F8101D01AA02A9D7
:1012800003A8134CA047BDF80C00BDF80810009B44
:1012900001335B1A019A0132121A9BB292B20D4CC1
:1012A000A0470399019A511A029A009B9A1A02FBCD
:1012B00001F202EB420206992C20074B98474FF4AB
:1012C000F0734FF4A07200210846A04704B010BD8F
:1012D000350D4000C50E4000C90D40000163704748
:1012E000416370474264B1F1C05F3AD013D8B1F1A5
:1012F000006F25D0B1F1805F0AD1036F13430367FC
:10130000436F416F0B4023EA02034367426070471B
:101310000029FBD17047B1F1205F21D009D8B1F18C
:10132000005FF3D1036F13430367436F13434367B6
:10133000ECE7B1F1405F13D0B1F1605F10D0E5E7A9
:1013400010B4016F046FD34321401C46194001675C
:10135000436F416F0B402340436742605DF8044B8D
:101360007047036F016F0B4023EA02030367436F6B
:1013700013434367CAE7416412F0010F0DD10166C0
:1013800012F00A0F0BD0016212F0020F09D112F015
:10139000080F08D0C0F8841005E04166F0E741620C
:1013A000F2E7C0F8801041610160704710B4019C01
:1013B00041644CB901664BB101654AB941630161B1
:1013C00001605DF8044B70474166F4E74165F4E75E
:1013D0000163F4E770B582B0054616461C46B1F1CC
:1013E000005F14D00AD9B1F1405F24D0B1F1605F41
:1013F00021D0B1F1205F17D000201AE0B1F1805F59
:1014000005D0B1F1C05F02D0B1F1006FF4D1324626
:101410002846114B984714F0010F02D12E66012087
:1014200007E06E66012004E01A4631460B4B9847F0
:10143000012002B070BD04F001030093C4F38003E7
:10144000B1F1605F14BF0022012231462846044CEE
:10145000A0470120EDE700BFE512400077134000F0
:10146000AD134000836B0B4214BF01200020704776
:10147000C06C7047806C7047054B03EB50135B02E8
:1014800000F01F00012202FA00F01863704700BF4D
:1014900007072000054B03EB50135B0200F01F0011
:1014A000012202FA00F05863704700BF07072000CE
:1014B00070B582B00D46464C04EB5014640201F046
:1014C000F043B3F1005F59D00AD8B3F1805F2FD059
:1014D000B3F1C05F3FD0B3F1006F16D0002012E02F
:1014E000B3F1405F5DD0B3F1605F5AD0B3F1205FDC
:1014F000F4D100F01F0101262A4606FA01F1204628
:10150000344B9847304602B070BD00F01F000126F2
:10151000864032464FF0006120462F4B984715F029
:10152000010F02D126660120EDE766660120EAE799
:1015300000F01F000126864032464FF080512046C1
:10154000254B984715F0010F02D126660120DAE7F6
:1015500066660120D7E700F01F000126864032466C
:101560004FF0C05120461C4B984715F0010F02D197
:1015700026660120C7E766660120C4E700F01F0069
:101580000126864032464FF000512046124B9847C4
:1015900015F0010F02D126660120B4E7666601202E
:1015A000B1E705F0605200F01F01012605EA0603CD
:1015B0000093C5F38003B2F1605F14BF00220122E3
:1015C00006FA01F12046054CA04730469BE700BFD4
:1015D0000707200077134000E5124000AD134000DC
:1015E0002DE9F041044688460E4B984705462046B3
:1015F0000D4B9847054013D00C4C04F1600603E0F6
:10160000B4420DD010345DB120684045F8D1616816
:101610002942F5D0E3689847636825EA0305EFE7B8
:10162000BDE8F0817114400075144000D00E4020D8
:1016300008B50A210148024B984708BD000E0E402C
:10164000E115400008B50B210148024B984708BD41
:1016500000100E40E115400008B50C210148024B76
:10166000984708BD00120E40E115400008B5102152
:101670000148024B984708BD00140E40E115400098
:1016800008B511210148024B984708BD00160E40CD
:10169000E1154000032811D0042812D002280CBF05
:1016A0004FF480710021084A136B23F440730B43FD
:1016B0001363936E13F0080FFBD070474FF4407123
:1016C000F1E74FF40071EEE700060E40174A136B86
:1016D00023F0700318431063936E13F0080F0AD1C0
:1016E0004FF4805311498A6E12F0080F03D1013B69
:1016F000F9D1012070470D4A136B23F0030343F027
:1017000002031363936E13F0080F0AD14FF4805352
:1017100006498A6E12F0080F05D1013BF9D101206C
:101720007047002070470020704700BF00060E4041
:10173000A0B90E48036A090289B20D4A1A400D4B3E
:101740001343194301620246936E13F0010FFBD05D
:10175000064A116A084B0B431362704703490B6A30
:10176000064A1A40064B13430B62704700060E40B0
:10177000FCFFC8FF0100370000003701FCFFC8FE76
:1017800002003701024B986E00F48030704700BFB2
:1017900000060E404FF00052014B9A62704700BFA6
:1017A00000060E40024B986E00F00200704700BF2A
:1017B00000060E4000F07F00054BC3F80C01D3F883
:1017C0000C2142F01022C3F80C210020704700BF0A
:1017D00000060E4008B5074B984203D0064B9842CE
:1017E00004D008BD1520054B984708BD2A20034B9F
:1017F0009847F6E70080004000800540B51740009C
:10180000436823F4702343604368090401F47021A2
:10181000194341607047436823F07F434360436846
:1018200043EA01614160704730B443F69924056989
:1018300015F0020F03D1013CF9D101200CE04468FE
:1018400014F0020F06D0120402F4702211430BB1FF
:1018500041F08071C160002030BC704732B900EBAC
:101860008100036B23F001030363704700EB8100E9
:10187000036B43F001030363704732B900EB81004F
:10188000036B23F002030363704700EB8100036BDB
:1018900043F0020303637047042A03D06AB1082AA5
:1018A00016D0704700EB8100036B23F0080303633D
:1018B000036B43F004030363704700EB8100036B89
:1018C00023F008030363036B23F0040303637047EF
:1018D00000EB8100036B43F008030363E1E700EBD7
:1018E00081010B6B23F0F0030B630B6B1A430A634C
:1018F0007047431E1944B1FBF0F0431EFE2B94BF0A
:1019000000B24FF0FF3070477AB110B4144600EBCC
:1019100081010B6B23F47F430B630A6B42EA0422C1
:101920000A6300205DF8044B70474FF0FF307047AA
:1019300010B400EB8101086B80B208630C6B44EAC1
:10194000036343EA02430B635DF8044B70470000F6
:10195000284B99424BD8A3F57A5399422DD910B40C
:10196000254CA4FB0234A40B033C244B0B449B00EA
:10197000B2FBF3F2033AFF2C1DD9002101316408B8
:10198000FF2C01D90629F9D9FF2A07D9062905D83C
:1019900001315208FF2A01D90629F9D913029BB255
:1019A000090401F4E0210B43E4B223430361002066
:1019B0005DF8044B70470021E6E74900B2FBF1F205
:1019C000033AFF2A11D9002301335208FF2A01D913
:1019D000062BF9D9110289B21B0403F4E0230B434F
:1019E000D2B21A430261002070470023F2E70120BF
:1019F000704700BF801A0600F11976050012FD3FFE
:101A000008B54FF0FF328262026A80220260026BE8
:101A10000822026020220260042202600A684968EB
:101A2000034B9847012814BF0020012008BD00BFC8
:101A300051194000CA68002A4CD070B48C68002646
:101A400046604B681B0203F4407343F480530D7CE3
:101A50002D0405F4FE052B434360C6604D685DB15F
:101A60000B78012D02DD4E7846EA0323022D04DDBA
:101A7000897841EA032300E00023C3600123036067
:101A8000022512E0056013F0020F1BD0036B2370D8
:101A9000036A13F0010FFBD0036A002070BC70478B
:101AA000036B04F8013B013AF2D0036A13F4807F20
:101AB00014D147F23051012AE4D013F0020FEFD1D4
:101AC000002AE5D0036A13F4807F05D10139F2D1F1
:101AD0000920E3E7012070470520DFE70520DDE767
:101AE000CB68002B43D070B48C68002646600A7C1B
:101AF000120402F4FE024D682D0205F440752A43DB
:101B00004260C6604D685DB10A78012D02DD4E78F5
:101B100046EA0222022D04DD897841EA022200E031
:101B20000022C26004E014F8012B4263013B0FD095
:101B3000026A12F4807F1ED112F0040FF3D1026A00
:101B400012F4807F15D112F0040FECD1002BF6D1E6
:101B5000036A13F4807F11D113F0040FF8D002232D
:101B60000360036A13F0010FFBD0002004E00120A2
:101B70007047052000E0052070BC70470520FBE79A
:101B8000436913F0020F02D0C161002070470120A9
:101B90007047436913F0010F03D083690B70002075
:101BA00070470120704710B40B01934214D9C9004B
:101BB0004B0803EBC202B2FBF1F2D3085C1E4FF6F6
:101BC000FE718C4201D9012017E0416841F40021E7
:101BD00041600CE0012010E0590801EBC202B2FBA9
:101BE000F3F2D3085C1E4FF6FE718C42F2D8120459
:101BF00002F4E0221A43026200205DF8044B7047B1
:101C0000084BC0F8E43000234360436283628823BA
:101C10000360242303604FF4807303604FF40023B8
:101C2000036070470041535570B505460C46164693
:101C30000F4B984700220F4B1A60A4B1324621681F
:101C400028460D4B9847024678B96368A1680B4354
:101C500021690B43E1680B4306490B6069680B433C
:101C60006B60104670BD0122FBE70122F9E700BF5F
:101C7000011C4000400F4020A71B40004023036090
:101C80007047102303607047436913F0020F04D0BC
:101C9000C1F30801C161002070470120704743690A
:101CA00013F0010F05D08369C3F308030B60002014
:101CB000704701207047FEE700B583B0254B264AE8
:101CC0009A4210D0254B234A9A420CD2013B9B1AD0
:101CD00023F00303043313441F4951F8040B42F863
:101CE000040B9A42F9D11E4B1E4A9A420AD2013B7A
:101CF0009B1A23F0030304331344002142F8041B0E
:101D00009342FBD1184A194B23F07F039360EFF302
:101D10001083B3FA83F35B09019372B6BFF35F8F4D
:101D20000022134B1A700199124A136843F470038E
:101D30001360BFF34F8FBFF36F8F29B101220C4B9C
:101D40001A70BFF35F8F62B60B4B98470B4B9847E7
:101D5000FEE700BF000040209C8C4900F00A4020B4
:101D600038104020F00A402000ED00E00000400064
:101D70000A00402088ED00E03D2B4000B9274000DC
:101D80003B4B1B6B03F00303012B1DD083B1022BD4
:101D900036D0374B1B6B03F07003702B5FD0344B86
:101DA0001A6B3449C2F302120B68D3400B607047C0
:101DB000314B5B6913F0800F14BF4FF400424FF4B6
:101DC000FA422C4B1A60E4E7294B1B6A13F0807F20
:101DD00003D02A4A274B1A60DBE7294A254B1A60B1
:101DE000234B1B6A03F07003102B05D0202BD0D19E
:101DF000224A204B1A60CCE7224A1E4B1A60C8E7E1
:101E00001B4B1B6A13F0807F16D01C4A194B1A60BB
:101E1000174B1B6B03F00303022BBAD1144A916AD0
:101E2000926A1448C1F30A41036801FB0333D2B23A
:101E3000B3FBF2F30360ACE7114A0E4B1A600C4B94
:101E40001B6A03F07003102B05D0202BE0D10B4A46
:101E5000084B1A60DCE70B4A064B1A60D8E7054AC4
:101E600013680949A1FB03135B081360704700BFA7
:101E700000060E400C00402010180E40001BB7005A
:101E800000093D0000127A00ABAAAAAA164B98429C
:101E900013D9164B984215D9154B984216D9154BA4
:101EA000984217D9144B984218D9144B984294BFB2
:101EB000134A144A144B1A6070474FF08062124B59
:101EC0001A607047114A104B1A607047104A0E4B47
:101ED0001A6070470F4A0C4B1A6070474FF004228B
:101EE000094B1A60704700BFBFF35E017FE7BD0278
:101EF0003FDB1C04FFCE7B05BFC2DA067FB6390884
:101F00000005000400060004000C0E40000100045F
:101F100000020004000300040A4B1B6853B1094B84
:101F20001B681A180849914208DB1046054A1060E0
:101F300018467047054A034B1A60F0E74FF0FF3030
:101F4000704700BF440F4020FCFF4520383240203E
:101F50004FF0FF3070474FF400534B600020704744
:101F60000120704700207047F0B583B005460C464D
:101F7000002301932A4B984213D02A4B984218D041
:101F8000294B98421DD0294B9D4222D0284B9D427F
:101F900027D0284B9D422ED0274B9D4235D003B0F1
:101FA000F0BD1F46254E21463846B0470028FAD1DD
:101FB000E9E71F46214E21463846B0470028FAD1AE
:101FC000E4E71F461D4E21463846B0470028FAD1A7
:101FD000DFE71F46194E21463846B0470028FAD1A0
:101FE000DAE71E46164D01A93046A8470028FAD167
:101FF000019B2370D3E71E46114D01A93046A84727
:102000000028FAD1019B2370C9E71E460C4D01A997
:102010003046A8470028FAD1019B2370BFE700BFD4
:1020200000080E40000A0E40001A0E40001C0E4030
:10203000004002400080024000C00240931B40006C
:102040009F1C400070B50C462A4B984213D02A4B77
:10205000984219D0294B98421FD0294B984225D03D
:10206000284B98422BD0284B984231D0274B98428E
:1020700037D0002070BD1E46254D21463046A8476A
:102080000028FAD1012070BD1E46214D2146304660
:10209000A8470028FAD1012070BD1E461C4D2146DC
:1020A0003046A8470028FAD1012070BD1E46184DC1
:1020B00021463046A8470028FAD1012070BD1E46AF
:1020C000144D21463046A8470028FAD1012070BDA2
:1020D0001E46104D21463046A8470028FAD101205F
:1020E00070BD1E460B4D21463046A8470028FAD148
:1020F000012070BD00080E40000A0E40001A0E407C
:10210000001C0E40004002400080024000C002401F
:10211000811B4000891C40000F4B1B6883421AD072
:1021200030B583B0044660B10C4B009360231A466F
:102130004FF4B97173200A4DA847074B1C6003B0D8
:1021400030BD084B009360231A464FF4B9717320D9
:10215000034DA847F1E770473C014020541D49005A
:1021600065124000548547002DE9F04782B01F46B4
:10217000DDF828800B780BB30546164618460C464A
:10218000DFF8409003E014F8013F1846B3B16A7AD3
:102190009A42F8D32B7AC01A6B6803EBC00ADAF8BC
:1021A00004108B684A680968009139463046C84770
:1021B000DAF804305B6843441E44E4E702B0BDE84B
:1021C000F08700BF6512400070B5C2B0344B1B6889
:1021D00033B9344A1360344A13600522334B1A6012
:1021E000334D324B1A6829463248334CA0472D4BA9
:1021F0001A6829463148A047314E2B4B1A682946A8
:102200003046A04730462F4B9847012842D02C49F2
:1022100002A82D4B984729482A4B98470128274B5D
:1022200002AA0CBF29492A491046234CA04721483D
:10223000244B984701281F4B02AA0CBF234924496D
:1022400010461D4CA0472348234B9847234D022698
:102250000096B4233C2202A92846214CA047214BDA
:10226000196800964FF4AA7332222846A0471E4BE5
:10227000009360231A464FF4B971C8201B4CA04745
:102280001B4B009360231A464FF4B9711E20A047E0
:1022900042B070BD3246174902A8A047BBE700BF55
:1022A000500F4020580F40204C0F4020400140204C
:1022B000B0894900DC0F40209D3340009C0F402036
:1022C000BC0F40200135400029344000B889490046
:1022D000C0894900FCFCFC00590F4000DC90400024
:1022E000692140000C10402054F147006512400065
:1022F000D0994000B4894900074A084B5363084805
:10230000906342630749816348638B63596306495D
:1023100099634B638A637047000140208800402026
:102320004C004020C40040201000402010B506485A
:10233000064B984740F2DF1340F23F120021084657
:10234000034CA04710BD00BFFCFCFC00590F40002F
:10235000A9114000FF280DD010B50748074B98473A
:102360004FF4E8734FF493724FF4BA71CA20044CDF
:10237000A04710BD704700BFFCFCFC00590F400097
:10238000A9114000FF280CD010B50648064B98470D
:102390004FF4E8737C224FF4BA712020034CA0471D
:1023A00010BD7047FCFCFC00590F4000A911400013
:1023B00010B50C20054B984700234FF480724FF066
:1023C00040510348034CA04710BD00BFB517400063
:1023D00000120E40D513400038B504460D46064B9A
:1023E000984720B929462046044B984738BD2946CE
:1023F0002046034B984738BD65144000DD1240006D
:10240000E1124000214B1B68013B02D41F4A1360BC
:10241000704710B53B221D4B1A601D481D4B984755
:1024200040F2DF1340F23F12B4213C201A4CA04787
:102430001A4A1368013B1360002B04DB184B1B681E
:10244000002B12DB10BD3B22144B1A601048114BBD
:10245000984740F2DF1340F23F12B4213C20A047DE
:102460000F4A1368013B1360E8E74FF480710D4891
:102470000D4B98470020054B1860084B1860084B1F
:1024800018600A4B18600A4B9847DBE74001402070
:10249000FCFCFC00590F4000A9114000580F4020DF
:1024A0004C0F402000120E40D9234000500F402016
:1024B0001921400008B50948094B984710F0010F51
:1024C00006D00122074B1A70074B1B68934200D0BD
:1024D00008BD064B9847064B9847F9E730180E4061
:1024E00051024000480F4020500F4020052440007A
:1024F000C9214000202A00D0704770B582B00D4637
:102500000446A0F175035C2B0ED8A1F5BA732E2BEF
:1025100019D9A1F2A3132C2B06D85E4B1B68012BF3
:1025200023D000205C4B9847A4F120035C2B43D8B8
:10253000A5F5BA715C2949D8564B1B6803B3CA3C50
:102540005C2C40D942E00120534B9847514B1B680B
:10255000002BE9D14FF480715048514B984701232B
:10256000504A13604B4A1360DEE74FF480714B48CA
:102570004B4B984700234B4A1360464A1360D0E701
:10258000494D2B685B6B2B604848494B98474FF48B
:10259000BE7340F23F124FF4AA713220454EB0474D
:1025A0002968022300934FF4AA7332224248434D14
:1025B000A847434B9847C2E7CA3C5C2C06D8A5F510
:1025C000BA715C2902D8334B1B68D3B1364B1A68F9
:1025D0003C4B9A4231D0344B1A683B4B9A4235D02F
:1025E000314B1A68394B9A4239D02F4B1A68384B05
:1025F0009A423DD02C4B1A68364B9A4241D002B0D9
:1026000070BD294C23689B6B23602848284B984752
:102610004FF4BE7340F23F124FF4AA713220254DA1
:10262000A8472168022300934FF4AA73322222485C
:10263000224CA047224B9847C8E7274B00938023A2
:102640001A46D2215A20254CA047C4E7244B0093B8
:1026500080231A46D2215A20204CA047C0E7214BA4
:10266000009380231A46D2215A201C4CA047BCE775
:102670001D4B009380231A46D2215A20174CA047A5
:10268000B8E71A4B009380231A46D2215A20134CE4
:10269000A047B4E7500F40201921400000120E401F
:1026A000D9234000540F40200C104020FCFCFC00BB
:1026B000590F4000A9114000DC9040006921400002
:1026C000C921400088004020000140201000402027
:1026D0004C004020C4004020544545006512400095
:1026E000545D480054C543005485440054C5460019
:1026F0002DE9F047CEB00546D222002119A8244B7F
:1027000098470024234FDFF8A890DFF8A88005E061
:102710002846214B9847022C2CD858B316A9284696
:10272000B8470028F4D1BDF85C1001EB8106C6F370
:102730009316C6F5A076BDF85A30C3EB031ACAF358
:10274000D31A9DF85820CDF80CA002969DF8590098
:1027500001900091494604A8C0479DF85920514670
:1027600030460E4B984704A919A80D4B98470134E1
:10277000E4B2CDE714B94EB0BDE8F08719A8094B13
:102780009847024619A90848084B9847F3E700BF45
:1027900025314000A106400031064000F5244000EC
:1027A000E9334000013540000080024085074000C9
:1027B000788949009D3340002DE9F047A6B00127F4
:1027C0008D4B1F708D4B98478D4B98478D484FF41C
:1027D000A07303604FF4F07343608B4B8360C3605E
:1027E0008A4B98478A4B98478A4B984700208A4BD8
:1027F00098470020894B98470020894B9847894C7F
:1028000006AB94E8070003C31A8015AD04F10C066B
:102810000FCE0FC50FCE0FC533682B6003AB04F18D
:10282000300207CA03C31A700CAD3C340FCC0FC57D
:102830000FCC0FC523682B7000240B947A4B0A939E
:102840004A268DF82C60DFF86482CDF824801320AE
:10285000DFF85C92C847754D09A92846744B984724
:102860000223324629461EA8724DA8472246062159
:102870001EA8714DA8473A4601461EA86F4EB047A4
:102880006F48704B9847224607211EA8A847202270
:1028900001461EA8B047224607211EA8A847C11915
:1028A000102289B21EA8B047224607211EA8A847B9
:1028B000811C4B2289B21EA8B047224607211EA8C0
:1028C000A847C11C842289B21EA8B047224608210D
:1028D0001EA8A84706AA01461EA8DFF8D8A1D0471F
:1028E000224609211EA8A84715AA01461EA8D047BE
:1028F00022462E211EA8A84703AA01461EA8D0479B
:10290000224638211EA8A8470CAA01461EA8D04777
:10291000224606211EA8A847811C3A4689B21EA855
:10292000B047494B9847494D2860494B984729681B
:10293000022300934FF4AA7332224648464DA8471B
:10294000464B009360231A464FF4B971C820444D9A
:10295000A847444B009360231A464FF4B9711E20D8
:10296000A847414B009360231A464FF4B971732076
:10297000A8473E4B009380231A46D2215A20A847ED
:102980003B4B009380231A461E21BE20A847394D99
:10299000394B1D60394A3A4B1A603A4A3A4B1A6031
:1029A0004FF4E1331593C02316934FF4006317934C
:1029B000189419940E20C847424615A92846334B4F
:1029C00098472846324B98472846324B9847324E14
:1029D000336821469868314DA847336821465868C6
:1029E000A8472F482F4B9847034FDFF8CC902E4C29
:1029F000DFF8C88068E000BF480F402011074000A2
:102A0000790A4000FC0F4020FCFCFC00E50F400070
:102A10002D234000B12340001921400055234000E0
:102A2000852340007C904000801A06000080014011
:102A3000011A40009902400031054000E9054000BC
:102A4000D828320001004020F92240000C1040201C
:102A5000C9214000DC9040006921400054F147004A
:102A600065124000D09940005485470054854400C9
:102A70005405460000800240980F40204520400049
:102A8000940F4020691F4000900F4020291C4000F7
:102A90007D1C4000831C400044014020FD3140006B
:102AA000548949008D2B400030180E4080D1F00829
:102AB000B517400071054000E9014000D501400014
:102AC0001EA8184B984748BB3B78002BF8D0002134
:102AD0002046C8474FF480612046C0472046124B2D
:102AE00098470546104E2046B0478542FBD005F179
:102AF000200120460D4B98470D4B0822C3F880203B
:102B0000C3F88021A02183F803131A604FF48031A9
:102B10002046084B984700233B70D1E71EA8064B80
:102B20009847D1E7310640003D0240005502400081
:102B300000E100E015024000F126400070B50F4EA4
:102B40000F4D761BB61018BF002405D0013455F880
:102B5000043B9847A642F9D10A4E0B4D761B96F0DE
:102B600087F8B61018BF002406D0013455F8043B8E
:102B70009847A642F9D170BD70BD00BF7C8C49005A
:102B80007C8C4900848C49007C8C49000FB400B5D2
:102B9000074983B004AB086853F8042B816801939C
:102BA00001F08AFF03B05DF804EB04B0704700BF8A
:102BB00044014020024B0146186800F003B800BFF2
:102BC000440140202DE9F04F01F10B06162E83B091
:102BD000054640F29E8036F0070600F1BD80B14206
:102BE00000F2BA8000F0ECFAB6F5FC7FC0F09382F8
:102BF000730A00F0B880042B00F27981B30903F165
:102C0000390003F1380EC300BF4F3B44A3F1080164
:102C10005C68A14206D10CE0002A80F2AA80E46838
:102C2000A14206D0636823F003039A1B0F2AF3DD49
:102C300070463C69DFF8E4E2744500F0AB816368FC
:102C400023F003039A1B0F2A00F39081002AC7F890
:102C500014E0C7F810E080F29D80B3F5007F80F0AB
:102C60006181DB0803F1010C99107A6857F83C8008
:102C7000C4F8088001238B4007EBCC0113430839CB
:102C8000E1607B6047F83C40C8F80C4082100124AA
:102C900094409C4200F28B801C4206D120F003003D
:102CA00064001C4200F10400FAD007EBC009CC46D6
:102CB0008046DCF80C309C4507D16DE1002A80F29B
:102CC0007B81DB689C4500F06781596821F0030136
:102CD0008A1B0F2AF2DDD3F80CC0D3F808800093CA
:102CE0009C19284646F0010642F001055E60C8F8CE
:102CF0000CC0CCF808807C613C61C4F80CE0C4F8DE
:102D000008E065605A5000F061FA009B03F1080486
:102D10001EE0102920D800F053FA102618230220B4
:102D2000794F3B44A3F108025C68944200F03D8176
:102D30006368E168A66823F00303234428465A68C1
:102D4000F16042F001028E605A6000F03FFA0834F0
:102D5000204603B0BDE8F08F00240C2320462B60F2
:102D600003B0BDE8F08F40204FF400734FF03F0EEA
:102D70004AE72344E1685A68A66842F00102F1601C
:102D800028468E605A6000F021FA0834204603B0CD
:102D9000BDE8F08F234428465A6842F001025A6089
:102DA00000F014FA0834204603B0BDE8F08FBC6888
:102DB000636823F00308B04504D3A8EB06030F2B88
:102DC00000F38580DFF85891504BD9F800201B683C
:102DD0000132334404EB080A00F0558103F58053B7
:102DE0000F3323F47F6B2BF00F0B5946284600F06E
:102DF000F3F9411C024600F0FC80824500F2F780A6
:102E0000434B19685944196000F04D81D9F800000E
:102E100001301BBFA2EB0A0A5144C9F80020196017
:102E200012F0070100F01581C1F10800C1F58051D1
:102E30000244083102EB0B09C9F30B09A1EB0909A4
:102E4000494628460193009200F0C6F9431C9DE8CC
:102E50000C0000F04381801A484440F001001968DA
:102E6000BA604944BC425060196017D0B8F10F0FE6
:102E700040F2FB806068A8F10C0222F0070204EB2C
:102E8000020E00F001004FF0050C10430F2A6060A5
:102E9000CEF804C0CEF808C000F217811D4BBC6804
:102EA0001A68914288BF19601B4B1A689142626888
:102EB00088BF196022F003029642A2EB060301D8F4
:102EC0000F2B04DC284600F081F9002440E7A2190A
:102ED00043F0010346F0010666602846BA6053607D
:102EE00000F074F90834204603B0BDE8F08F142BCD
:102EF00071D9542B00F2A380330B03F16F0003F15F
:102F00006E0EC30080E600BF700540208C0F40208D
:102F10005C0F4020840F4020880F4020780540201F
:102F2000780940205A0A042A5BD9142A00F2AE809C
:102F300002F15C01C9005B3207EB010C7958ACF17E
:102F4000080C8C4500F088804A6822F00302934206
:102F500073D289688C45F7D1DCF80C207B68E2607D
:102F6000C4F808C09460CCF80C408FE6A11946F074
:102F7000010C42F00106C4F804C0284679613961A9
:102F8000C1F80CE0C1F808E04E60E25000F01EF914
:102F90000834DDE67B6879E608F1010818F0030FD4
:102FA0000CF1080C7FF485AE2DE0DC68A34208BF6D
:102FB00002303FF43EAEBBE619441C464A68DB686B
:102FC00054F8086F42F001024A602846F3609E60A0
:102FD00000F0FCF8BCE603F15C0003F15B0EC300FB
:102FE00012E69A0902F13901C9003832A4E7BC425D
:102FF00054D0BC68626822F003025DE759F80839D2
:10300000994540F0868010F0030F00F1FF30F5D1B4
:103010007B6823EA04037B6064009C423FF6C7AEF2
:10302000002C3FF4C4AE1C4240467FF43EAE640028
:103030001C4200F10400FAD037E68C468CE7B3F569
:10304000AA7F15D8F30B03F1780003F1770EC300C4
:10305000DAE54FF48051EDE67B689210012101FA28
:1030600002F213437B60624679E70123536029E74C
:1030700040F25452934222D8B30C03F17D0003F185
:103080007C0EC300C0E503F1100BAEE6542A29D82C
:103090001A0B02F16F01C9006E324DE7204B19681F
:1030A00059441960B2E6CAF30B0000287FF4AEAEB3
:1030B00008EB0B03BA6843F001035360EEE67F2090
:1030C0004FF47E734FF07E0E9EE504F10801284612
:1030D000009303F0CDFD009B1968DFE601204FF05F
:1030E0000009BCE6B2F5AA7F05D8DA0B02F1780137
:1030F000C900773220E740F254518A4205D89A0C31
:1031000002F17D01C9007C3216E74FF47E717E2208
:1031100012E77B6880E7F00806F1080300E600BFCD
:103120005C0F402070B4860746D0541E002A41D060
:10313000CAB2034602E014F1FF343BD303F8012B7B
:103140009D07F8D1032C2ED9CDB245EA05250F2CC9
:1031500045EA054519D903F110022646103E0F2E07
:1031600042F8105C42F80C5C42F8085C42F8045CDF
:1031700002F11002F2D8A4F1100222F00F0204F0C2
:103180000F041032032C13440DD91E462246043A74
:10319000032A46F8045BFAD8221F22F00302043205
:1031A000134404F003042CB1C9B21C4403F8011BFE
:1031B0009C42FBD170BC704714460346C2E700BF77
:1031C000014803F0FDBF00BF20104020014803F07C
:1031D000F9BF00BF2010402038B5074C002305463A
:1031E00008462360FEF798FE431C00D038BD2368D4
:1031F000002BFBD02B6038BD3410402000290CBFC1
:10320000022200224FF4806300F000B82DE9F04361
:10321000614C256883B004460F4690461E4615B1A2
:10322000AB6B002B64D0B8F1020F06D0B8F1010FE0
:1032300000F29F80002EC0F29C80636ED80734D5C8
:103240002146284603F096FB216B41B104F140036F
:10325000994202D0284603F00BFD00232363B4F902
:103260000C300022A26162601A063AD423F44A6349
:1032700023F00303B8F1020FA3811DD001AB6A460E
:103280002146284603F0A0FFA3891843A081002E01
:1032900032D1009E3046FFF78DFC074600286BD0E8
:1032A000A38943F08003A38128E0A3899905C7D4AB
:1032B000A06D03F085FFC3E70025616E002604F1D1
:1032C000430243F002030120A660CE07A3812260DF
:1032D0002261606101D498053ED5284603B0BDE85F
:1032E000F0832169284603F0C3FCB4F90C30BDE734
:1032F000284603F097FB96E7002FCBD0AB6B002B53
:1033000033D0009BB4F90C2027609E421CBF42F4CE
:103310000062A281B8F1010F04BF42F00102A28154
:1033200092B212F00803276166610ED0D1071AD558
:10333000656E7642002315F00105A661A36009D0F1
:103340000025284603B0BDE8F083A360656E15F044
:103350000105F5D19305C0D4A06D03F033FF2846D5
:1033600003B0BDE8F083A660F0E7284603F05AFBFF
:10337000C7E74FF0FF35B0E7DDF80090B14504D066
:103380004846FFF717FC074620B9B4F90C304FF058
:10339000FF3592E74E4683E7440140200EB4F0B576
:1033A0009CB021AB0F4953F8042B019305466FF0F5
:1033B0000044086802954FF402774FF6FF7602A9A1
:1033C0000695ADF8147004940794ADF8166000F0FB
:1033D00005F9029B00221A701CB0BDE8F04003B052
:1033E000704700BF44014020830710B5044610D148
:1033F0000268A2F1013323EA020313F0803F08D1EF
:1034000050F8042FA2F1013323EA020313F0803FA6
:10341000F6D003781BB110F8013F002BFBD100F070
:1034200003F8204610BD00BF80EA0102844612F076
:10343000030F4FD111F0030F32D14DF8044D11F0AD
:10344000040F51F8043B0BD0A3F101329A4312F060
:10345000803F04BF4CF8043B51F8043B16D100BF39
:1034600051F8044BA3F101329A4312F0803FA4F1CA
:1034700001320BD14CF8043BA24312F0803F04BF51
:1034800051F8043B4CF8044BEAD023460CF8013BBE
:1034900013F0FF0F4FEA3323F8D15DF8044B704768
:1034A00011F0010F06D011F8012B0CF8012B002AA6
:1034B00008BF704711F0020FBFD031F8022B12F095
:1034C000FF0F16BF2CF8022B8CF8002012F47F4F50
:1034D000B3D1704711F8012B0CF8012B002AF9D158
:1034E000704700BF00000000000000000000000066
:1034F00000000000000000000000000000000000CC
:1035000090F800F06DE9024520F007016FF0000C23
:1035100010F0070491F820F040F049804FF00004CB
:103520006FF00700D1E9002391F840F000F10800A6
:1035300082FA4CF2A4FA8CF283FA4CF3A2FA8CF3DE
:103540004BBBD1E9022382FA4CF200F10800A4FA45
:103550008CF283FA4CF3A2FA8CF3E3B9D1E9042399
:1035600082FA4CF200F10800A4FA8CF283FA4CF3D0
:10357000A2FA8CF37BB9D1E9062301F1200182FA8A
:103580004CF200F10800A4FA8CF283FA4CF3A2FA90
:103590008CF3002BC6D0002A04BF04301A4612BA9E
:1035A000B2FA82F2FDE8024500EBD2007047D1E9A1
:1035B000002304F00305C4F100004FEAC50514F030
:1035C000040F91F840F00CFA05F562EA05021CBF01
:1035D00063EA050362464FF00004A9E72DE9F04FC6
:1035E000C3B00C460B9192460F930C9003F0D6FD9E
:1035F00003681A931846FFF783FFA38919901906E9
:1036000003D52369002B01F0038000230DF1C809C5
:103610001393159314932793269318931B9309934D
:10362000CDF89490C846169317939AF800305446F4
:10363000E3B1252B02D119E0252B03D014F8013F6B
:10364000002BF9D1A4EB0A0585B1269B279AC8F86F
:1036500000A001332A44072BC8F804502792269370
:103660007FDC08F10808099B2B4409932378002B81
:103670007FD000231A468DF8773019460D939B466C
:103680004FF0FF3063780A9004F1010A0AF1010A51
:10369000A3F12000582800F2C183DFE810F03802BF
:1036A000BF03BF034002BF03BF03BF03BF03BF038A
:1036B000BF0345020302BF035D006B02BF03860226
:1036C0009D039D039D039D039D039D039D039D03FA
:1036D0009D03BF03BF03BF03BF03BF03BF03BF03FC
:1036E000BF03BF03BF0337035703BF035703BF0322
:1036F000BF03BF03BF039803BF03BF03AD03BF03F3
:10370000BF03BF03BF03BF035902BF03BF031E03B1
:10371000BF03BF03BF03BF03BF03BF03BF03BF0399
:10372000BF03BF03C602DB025703570357038B02D5
:10373000DB02BF03BF039002BF039D02CC01B402B2
:103740000802BF03E101BF037E00BF03BF030D02F8
:103750000D980F9340420D904BF0040B9AF80030F7
:1037600094E725AA0B990C9804F0F4FB40B9C846DD
:1037700079E7279B23B10C980B9925AA04F0EAFB63
:103780000B9B9B8913F0400F099B18BF4FF0FF3331
:103790000993099843B0BDE8F08F1BF0200F1193F7
:1037A00040F0DD810F9A1BF0100F134640F06E853C
:1037B0001BF0400F00F06A851488043200250123B5
:1037C0000F9200278DF877700A994A1C00F06582E5
:1037D0002BF08002079254EA050240F0648200292F
:1037E00040F03C84002B40F0D7841BF001030E9383
:1037F00000F0048642AE302306F8413D0A9B0E9A43
:103800009342B8BF134608930023129317B1089B45
:1038100001330893079B13F00203109302D0089B17
:1038200002330893079B13F0840540F00E830D9B31
:10383000089AA3EB020BBBF1000F40F30683BBF128
:10384000100F279C269A29DD43462146A8461027BB
:103850000C9C0B9D06E0ABF1100BBBF1100F03F1BC
:10386000080318DD0132B74826921031072A279144
:1038700083E88100EFDD25AA2946204604F06AFB93
:1038800000287FF47DAFABF1100BBBF1100F27992F
:10389000269A4B46E6DC45460C4698460132A94B33
:1038A00026925C44072A279488E8080800F3988445
:1038B0009DF8777008F1080877B1269B0133013431
:1038C0000DF177010122072B2794269388E8060043
:1038D00000F3DB8308F10808109B6BB1269B0133D2
:1038E00002341EA90222072B2794269388E806009B
:1038F00000F3D68308F10808802D00F015830A9B99
:103900000E9A9F1A002F36DD102F269B8E4D27DD35
:1039100042462146B0464FF0100B2E460C9C0B9DA4
:1039200004E0103F102F02F1080215DD01331031C1
:10393000072B2791269382E84008F2DD25AA294625
:10394000204604F007FB00287FF41AAF103F102F29
:103950002799269B4A46E9DC35460C464646904662
:1039600001333C44072B2794269388E8A00000F3FA
:10397000818308F10808079BDF0500F16882269B18
:103980000E99C8F8006001330C44072B2794C8F83F
:103990000410269300F34D8308F10808079B5B078A
:1039A0003AD50D9B089A9D1A002D35DD102D269BCA
:1039B00020DD10260C9FDDF82CB004E0103D102D0A
:1039C00008F1080816DD01335E4A26931034072BF0
:1039D000279488E84400F1DD25AA5946384604F0CA
:1039E000B9FA00287FF4CCAE103D102D279C269B01
:1039F000C846E8DC0133534A26932C44072B27940E
:103A000088E8240008DD25AA0B990C9804F0A2FA96
:103A100000287FF4B5AE279C099B0D9A08998A422D
:103A2000ACBF9B185B180993002C40F00D8300235A
:103A30002693C846F9E511931BF0200340F0E3817B
:103A40001BF0100240F02E841BF0400300F02A848B
:103A50000F9913460A4604320C880F920025B0E6EF
:103A60000F9A1193166800248DF87740151D002ECB
:103A700000F0A7860A9A531C00F0098621463046BA
:103A800003F036FC002800F0E186831B0E930A94B5
:103A90000F95CDF81CB023EAE373089312949DF8B8
:103AA0007770B3E69AF8003001222B21EEE54BF057
:103AB000200B9AF80030E9E51193002A40F0958731
:103AC000224B18931BF0200F40F011810F9A1BF02E
:103AD000100F134640F0E1831BF0400F00F0DD8330
:103AE000043314880F9300251BF0010F00F00C81A4
:103AF00054EA050300F0088130239DF844208DF836
:103B000078308DF879204BF0020B022359E69AF8B1
:103B1000003000297FF4BAAD01222021B6E54BF038
:103B2000010B9AF80030B1E50F9C23680D931846FD
:103B30000028234603F10403FFF60AAE0F939AF818
:103B40000030A3E5108A4900208A4900F089490025
:103B50004BF0100B1BF0200F11933FF423AE0F9D81
:103B6000073525F0070303F10802D3E900450F925A
:103B7000012326E69AF800302A2B0AF1010400F00E
:103B80002787A3F130000928A24600F2AD86002362
:103B90001C461AF8013B04EB840400EB4404A3F137
:103BA00030000928F5D90A9472E54BF0800B9AF899
:103BB00000306BE54BF0400B9AF8003066E59AF860
:103BC00000306C2B03BF9AF801304BF0200B0AF148
:103BD000010A4BF0100B59E5002A40F011871BF049
:103BE000200F40F0F9841BF0100F40F0AC841BF064
:103BF000400F00F0A8840F9A136804320F92BDF8AA
:103C000024201A8011E50F99B34B0C6818933022C9
:103C1000782304318DF8793011934BF0020B0F911A
:103C200000258DF878200223CBE50F9911930A68BF
:103C30008DF8A02000230A461F468DF87730043205
:103C400001230893CDF81CB00A9712970F920E9398
:103C500028AEDFE51193002A40F0EA861BF0200F22
:103C60005DD11BF0100F40F008831BF0400F00F0F7
:103C700004830F99B1F900400431E51722462B4621
:103C80000F91002A73F1000358DB0A999DF87770B1
:103C90004A1C4FF001037FF49BAD54EA050200F08B
:103CA000DF81CDF81CB0012B00F07B82022B40F0AD
:103CB000068218984E46230904F00F0143EA057363
:103CC0002A091C461546435C06F8013D54EA0503E3
:103CD000F1D1A9EB06030E9390E51193002A40F071
:103CE000A3867E4B18931BF0200F3FF4EFAE0F9D81
:103CF000073525F0070303F108021BF0010F0F92AF
:103D0000D3E900457FF4F4AE02235AE51193002A6B
:103D100040F086864BF0100B1BF0200FA1D00F9DBA
:103D2000073525F00705D5E90023002A05F108012C
:103D30001D4673F100030F911446A6DA2D27644245
:103D400065EB45058DF8777001233DE51193002A59
:103D500040F062860F9D073525F0070303F1080246
:103D60000F921A6815925B681493149B159D23F0AB
:103D70000044284621464FF0FF32594B04F0B8FF6B
:103D8000002840F04A83284621464FF0FF32544B2A
:103D900004F090FF002840F0408315A80DC8149946
:103DA00004F07EFF002840F030859DF877704D4E7E
:103DB0004D4B2BF0800007901198032200210892B0
:103DC0000A914728D8BF1E460E9212911EE54BF06D
:103DD000080B9AF8003059E4A3F1300000231C4688
:103DE0001AF8013B04EB840400EB4404A3F1300017
:103DF0000928F5D90D944BE44BF0100B11931BF0EF
:103E000020033FF41DAE0F9D073525F0070303F196
:103E10000802D3E900450F920023D2E41193002A4F
:103E200040F0E785119A002A3FF4A3AC002301215A
:103E30001F4608918DF8A020CDF81CB08DF8773082
:103E40000A9312930E9128AEE4E4279C34E5119B6B
:103E5000652B40F3A78015A80DC8149904F016FF30
:103E6000002800F05081269B204AC8F8002001332A
:103E700001340122072B27942693C8F8042000F36D
:103E80006A8308F108081F9B139A279C934203DB5F
:103E9000079BDD077FF582AD269B19991A9AC8F812
:103EA000002001330C44072BC8F8041027942693F4
:103EB00000F39E8308F10808139B5E1E002E7FF717
:103EC0006DAD102E269B0A4D40F3F581224610273A
:103ED000DDF830B00B9C13E0F0894900DC89490023
:103EE000FFFFEF7FD0894900CC8949000C8A490047
:103EF000208A490008F10808103E102E40F3DA81AC
:103F000001331032072B2792269388E8A000F1DDB9
:103F100025AA2146584604F01DF800287FF430AC4D
:103F2000279A269BC846E7E70D9B089A9F1A002F01
:103F30007FF7E5AC102F269BB64D27DD4246214684
:103F4000B0464FF0100B2E460C9C0B9D04E0103F2A
:103F5000102F02F1080215DD01331031072B2791D4
:103F6000269382E84008F2DD25AA2946204603F080
:103F7000F1FF00287FF404AC103F102F2799269BF7
:103F80004A46E9DC35460C464646904601333C44F9
:103F9000072B2794269388E8A00000F3328208F1CB
:103FA0000808ACE4139B269F012B40F3FE810137E8
:103FB00001340123072F27942697C8F80060C8F81A
:103FC000043000F3038208F10808199A1A9BC8F814
:103FD000003001371444072F27942697C8F804208F
:103FE00000F3008208F1080815A80DC8149904F020
:103FF0004DFE139B002840F00181013B0137013643
:104000001C44072F26972794C8F80060C8F804308E
:1040100000F3278108F108081B9AC8F8042001372B
:10402000144421AB072F27942697C8F800307FF758
:10403000B3AC25AA0B990C9803F08CFF00287FF4F1
:104040009FAB279CC846A9E425AA0B990C9803F0BE
:1040500081FF00283FF4EBACFFF792BBDDF81CB00A
:10406000012B00F03481022B25D1CDF81CB00024A7
:1040700000251EE625AA0B990C9803F06BFF00287B
:104080007FF47EAB279CC84675E425AA0B990C9853
:1040900003F060FF00287FF473AB279CC8461BE445
:1040A00025AA0B990C9803F055FF00287FF468AB04
:1040B000279CC84620E4CDF81CB0002400254946C2
:1040C00000E03146E20842EA4572E80804F00703DE
:1040D00005461446303354EA050201F8013C01F16B
:1040E000FF36EED1079AD2077FF5F3AD302B3FF4C0
:1040F000F0AD0239302306F8013CA9EB01030E9321
:104100000E46FFF77BBB1F99002940F32E82129BBE
:10411000139A9342A8BF1346002B1F460DDD269B22
:10412000C8F8006001333C44072B2794C8F804709A
:10413000269300F31F8308F10808129B002FA8BFE5
:10414000DB1B002B1F4640F3D680102F269B314DE2
:1041500040F3ED8142462146B0464FF0100B2E460B
:104160000C9C0B9D04E00832103F102F40F3DB81C4
:1041700001331031072B2791269382E84008F2DDA6
:1041800025AA2946204603F0E5FE00287FF4F8AA78
:104190002799269B4A46E7E70A9B0E934E46FFF770
:1041A0002DBB002D08BF0A2CC0F08F804E46204644
:1041B00029460A22002304F0D9FD303206F8012DE9
:1041C0002046294600230A2204F0D0FD04460D466D
:1041D00054EA0503EBD1A9EB06030E93FFF70EBBE0
:1041E00025AA0B990C9803F0B5FE00287FF4C8AA05
:1041F0009DF87770279CC846FFF75EBB5E1E002EB9
:104200007FF70AAF102E034D22DD22464FF0100B30
:104210000C9C06E0208A4900103E102E08F1080888
:1042200015DD01371032072F2792269788E82008DE
:10423000F2DD25AA0B99204603F08CFE00287FF4BE
:104240009FAA103E102E279A269FC846E9DC1446E6
:1042500001373444072F2794269788E860007FF7BA
:10426000D9AE25AA0B990C9803F074FE00287FF4B0
:1042700087AA279C269FC846CEE60F9A1468134645
:104280000433E5170F9322462B46FAE404321C68E8
:104290000F9201230025FFF794BA1C6804330F9393
:1042A000002521E40F990A4604320C680F9200257C
:1042B000FFF787BA144601333444072B279426931B
:1042C00088E860007FF768ABB3E6DDF81CB0CDF896
:1042D0001CB042AE3034012306F8414D0E93FFF777
:1042E0008DBA25AA0B990C9803F034FE00287FF4B0
:1042F00047AA279CC8461F9A139B9A4244DB079BF8
:10430000D90741D4139B12989A1A1D1A9542A8BF37
:104310001546002D0EDD2699C8F8045001310644DB
:104320002C440729C8F800602794269100F33B82AB
:1043300008F10808002DACBF561B1646002E7FF76B
:104340002DAB102E269BB04DB5DD22461027DDF893
:1043500030B00B9C04E008F10808103E102EA9DDD7
:1043600001331032072B2792269388E8A000F2DD54
:1043700025AA2146584603F0EDFD00287FF400AA47
:10438000279A269BC846E8E7269B19981A99C8F8E9
:10439000001001330444072B2794C8F80400269327
:1043A00000F3F58108F10808ACE7079BDA073FF551
:1043B000FEAD013701340123072F27942697C8F853
:1043C0000060C8F804307FF725AE4AE725AA0B99AC
:1043D0000C9803F0BFFD00287FF4D2A9279C269FEC
:1043E000C846F2E525AA0B990C9803F0B3FD002806
:1043F0007FF4C6A9279C269FC846F5E54E46FFF7E1
:10440000FDB925AA0B990C9803F0A4FD00287FF4B0
:10441000B7A9279CC846FFF772BA159C22462046CA
:10442000149C2346214604F063FC002840F0868259
:104430000A9B0133119B23F020030E9300F0E281CD
:10444000472B00F01E814BF480730793149B1F1EB3
:10445000159B0893BBBF3B4603F1004700232D2368
:104460001093119B662B00F0BB81462B00F0DF8080
:104470000E9B089A452B0CBF0A9B0A9D23A820A9D6
:1044800008BF5D1C049003911FA802213B460290C7
:10449000019500910C9801F0A3FA119B672B064639
:1044A00040F0E0811BF0010F00F046827419169A6B
:1044B0000898179B394604F0E9FB002840F0658115
:1044C000239BA34206D230215A1C23921970239BAE
:1044D0009C42F9D89B1B13930E9B472B00F0E9805D
:1044E000119B652B40F3CD81119B662B1F9B129373
:1044F00000F09E81139B129A1946914200F38A8123
:104500001BF0010F40F0138222EAE2730893672345
:104510000E921193109B002B40F0C4800A939DF8DB
:104520007770FFF773B935460C464646904601331F
:104530003C44072B2794269388E8A0003FF7D1AE90
:1045400008F10808D7E60F9A136804320F92099A07
:104550001A60FFF76AB825AA0B990C9803F0FAFCC9
:1045600000287FF40DA9C8468DE4269B274AC8F889
:104570000020013301340122072B27942693C8F829
:10458000042072DC08F1080829B9139B1BB9079BAA
:10459000D8077FF503AA269B19981A9AC8F8002015
:1045A000013302462244072B2792C8F804002693C1
:1045B00000F38D8108F108080029C0F26581139984
:1045C000C8F8006001338C18072B27942693C8F88D
:1045D00004107FF7E1A92CE50F9A09991368CD170C
:1045E0000846043229460F92C3E90001FFF71DB8BF
:1045F00025AA0B990C9803F0ADFC00287FF4C0A805
:10460000279CC84658E400BF208A49000C8A49000C
:1046100040210C98FEF7D6FA0B9A10601061002822
:1046200000F0F2810B9A40235361FEF7EEBF23A8FE
:1046300020A90A9C049003911FA803210290089AC4
:1046400001943B4600910C9801F0CAF925460646B4
:10465000119B462B06EB05047FF429AF3378302BF2
:1046600000F078811F9D2C4421E725AA0B990C9816
:1046700003F070FC00287FF483A81F99279CC8468C
:1046800082E70A9B002B08BF01230A93DBE6304632
:104690000A94FEF735FF0F950E90CDF81CB0034637
:1046A000FFF7F9B92D2700238DF877700A93FFF7EC
:1046B000AEB81F9B12931A46033304DB0A9B1946BC
:1046C0009142BFF617AF119B023B11939DF8443006
:1046D0008DF88430129B013B002B1F93BDBF129BB2
:1046E000C3F101032D222B22092B8DF8852040F3E5
:1046F00016810DF193042046AB4D00E0104685FB7A
:104700000312D917C1EBA20101EB8102A3EB420214
:104710003032092900F8012C0B4600F1FF32EDDCA4
:1047200030330238D9B2844202F8011C40F265816C
:104730000DF18600134601E013F8011B00F8011B80
:10474000A342F9D101339B1A0DF18602134421AA29
:104750009B1A139A1B93012A13440E9340F3198159
:104760000E9B199A13440E9323EAE37308930023D4
:104770001293CFE625AA0B990C9803F0EBFB0028C7
:104780007EF4FEAF279CC846D7E42346A2E625AABE
:104790000B990C9803F0DEFB00287EF4F1AF1F9A12
:1047A000279CC846AEE525AA0B990C9803F0D2FBCE
:1047B00000287EF4E5AF1F9A139B279C9A1AC846DF
:1047C000B8E50A9B1296062B28BF06230A963746A1
:1047D00008930F95CDF81CB00E93744EFFF716B8E2
:1047E00023A820A90A9D049003911FA803210290E9
:1047F000089A01953B4600910C9801F0F1F80646A5
:1048000044192BE706230A931DE62D278DF87770B0
:10481000FFF7CDBA199A139B1344129A0E93002AEC
:1048200040F3B08023EAE37308936723119371E6A2
:10483000002B40F3C3800A9A002A40F099801BF0B5
:10484000010F40F0958008930E9363E60A9B08934E
:104850000E930A900F95CDF81CB012909DF87770CA
:10486000FEF7D4BF119B472B7FF420AE1BF0010F46
:104870007FF4EEAE239B9B1B13930E9B472B3FF4C1
:1048800018AF1F9B129321E74F421031484D2FDA8A
:104890001024DDF830B004E008F10808103F102FB4
:1048A00026DD01331032072B27922693C8F80050DB
:1048B000C8F80440F0DD25AA0B99584603F04AFBDE
:1048C00000287EF45DAF279A269BC846E6E725AA16
:1048D0000B990C9803F03EFB00287EF451AF1F9912
:1048E000279A269BC84667E600200A90FEF7D0BEAE
:1048F00001333A44072B88E8A0002792269308F159
:1049000008087FF75CAE25AA0B990C9803F022FBF0
:1049100000287EF435AF279A269BC8464FE63033F1
:1049200030228DF887308DF8862022AB0FE7129B5E
:10493000199A13440E9375E7239BCBE5149B1D4EE8
:10494000002BB6BF2D279DF877708DF877701A4B26
:10495000FFF72FBA169A0898179B394604F096F974
:1049600000287FF47FAEC5F101051F952C449EE51C
:10497000129B199A13440A9A1A4422EAE2730E927D
:104980000893C7E5129B0E9AC3F101031A4413461C
:10499000D0E71BF0010312937FF4E2AE0E9B23EAF3
:1049A000E3730893B6E500BF67666666048A49004C
:1049B000208A4900D8894900D48949000A9B13B943
:1049C0001BF0010F02D0199B0133D4E701233AE712
:1049D0000F9D9AF80130286840EAE0700A90284656
:1049E0000430A2460F90FEF751BE8DF87710FFF706
:1049F00067B88DF87710FFF715BA0DF18603A6E6B4
:104A00008DF87710FFF7EBB80C9A0C2313604FF07A
:104A1000FF330993FEF7BDBE8DF87710FFF79AB903
:104A20008DF87710FFF776B98DF87710FFF759B941
:104A30008DF87710FFF712B92DE9F84F4B6E9C04F3
:104A400093462FD59368126853B30E46074602F17A
:104A5000080919E920045FEA9A0817D0043D0024E8
:104A600001E0A04510D0324655F8041F384602F048
:104A70007BF8431C04F10104F3D10023CBF8083088
:104A8000CBF80430BDE8F88FDBF808302AF0030AD1
:104A9000A3EB0A03CBF8083009F10809002BD8D1A1
:104AA0000020EAE702F0CAF90023CBF80830CBF87F
:104AB0000430BDE8F88F00BF2DE9F04FADB01D46C2
:104AC0008B4690460793069018B1836B002B00F03D
:104AD000F380DBF86430BBF90C00DF0781B202D44D
:104AE0008E0540F1FC808C040AD4DBF8643040F47D
:104AF000005123F40053ABF80C10CBF8643089B2AA
:104B0000080740F1B380DBF81030002B00F0AE80D6
:104B100001F01A030A2B00F0B58000230DF1700993
:104B20000B93119310930393CDF83C90CA46CDF8A4
:104B300010B098F800304446FBB1252B02D11CE0A0
:104B4000252B03D014F8013F002BF9D1A4EB080565
:104B50009DB1109B119ACAF8008001332A44072B9B
:104B6000CAF80450119210937ADD002A40F0B08404
:104B7000039B10922B44CA4603932378002B00F02A
:104B8000E08300204FF000038DF8373004F1010876
:104B900062780546064603464FF0FF3408F10108E7
:104BA000A2F12001582900F2DE82DFE811F0210293
:104BB000DC02DC022902DC02DC02DC02DC02DC02B8
:104BC000DC0289029502DC02A200BD02DC029F0128
:104BD000A401A401A401A401A401A401A401A401AD
:104BE000A401DC02DC02DC02DC02DC02DC02DC020E
:104BF000DC02DC02DC02B201DC02DC02DC02DC02F0
:104C0000DC02DC02DC02DC02DC02DC029701DC02FA
:104C1000DC02DC02DC02DC029B01DC02DC0253026F
:104C2000DC02DC02DC02DC02DC02DC02DC02DC0294
:104C3000DC02DC025A021B02DC02DC02DC026E0235
:104C40001B02DC02DC027302DC02F50182010902B4
:104C5000D702DC029A02DC02A700DC02DC022E0290
:104C60000AF1080A039B2B44039386E759460698EA
:104C700000F0ACFD18BBBBF80C1001F01A030A2BB6
:104C80007FF44BAFBBF90E30002BFFF646AFDBF8DD
:104C90006430DB0705D48F0503D4DBF8580002F03D
:104CA00091FA2B4642465946069800F04DFD039076
:104CB00003982DB0BDE8F08F01F0B4FE09E7DBF8F2
:104CC0006430D90704D4BBF80C309A0540F1AA84AB
:104CD0004FF0FF33039303982DB0BDE8F08FDBF85E
:104CE000580002F06DFABBF90C0081B2FBE6764287
:104CF000079243F0040398F800204FE708969E06B9
:104D000000F150840799DD060A4600F1EF8358064A
:104D100040F1EC830E8804310027012207914FF007
:104D200000018DF837100025611C00F0168123F07A
:104D30008001029156EA070140F01481002C40F0F6
:104D40005C83002A40F0B78313F00103059300F061
:104D500057840DF1B00B30230BF8413D059BA34266
:104D6000B8BF234601930DB101330193029B13F0A9
:104D70000203099302D0019B02330193029B13F0BB
:104D800084030A9340F01782089B019A9D1A002D14
:104D900040F31182102D40F39084109B119AC44E61
:104DA000D6461027A2461946069C07E001F1020CE0
:104DB0000EF1080E0146103D102D11DD481C103279
:104DC000072811928EE8C0001090EFDD002A40F015
:104DD000E481103D102D11464FF0010CCE46EDDC64
:104DE00054466146F2462A4407291192CAF80060E7
:104DF000CAF80450109100F3EC829DF837500AF184
:104E0000080A481C002D40F0DE81099B002B00F0B1
:104E1000F88102320EA902230728119210908AE825
:104E20000A0040F3EA81002A40F08C830A9B802B21
:104E30004FF001001146CA4640F0E781089B019DF2
:104E40005E1B002E40F3E181102E9A4D40F35084FA
:104E5000D4461027A246069C07E001F1020E0CF191
:104E6000080C0146103E102E11DD481C1032072898
:104E700011928CE8A0001090EFDD002A40F09D8296
:104E8000103E102E4FF0010E1146CC46EDDC54467C
:104E9000E2463244BEF1070F11928AE86000CDF875
:104EA00040E000F369830AF1080A0EF1010071463F
:104EB000ABE1089613F0200240F08C8313F0100150
:104EC00040F01A8313F0400200F0168307980A4658
:104ED0000146043106880791002720E7089643F031
:104EE0001003E7E7089643F0100308E743F0800358
:104EF00098F8002052E6A2F13001002618F8012BA4
:104F000006EB860601EB4606A2F130010929F5D928
:104F100046E60896002840F0088443F010039E06F9
:104F200000F14C83DD0600F1F382580640F1F08277
:104F3000079DB5F900602A46F71704323046394616
:104F40000792002871F10002C0F25D83611C9DF898
:104F500037504FF001027FF4EAAE56EA070100F045
:104F60004D820293012A00F08C82022A40F05C827A
:104F70000B98CB46330906F00F0143EA07733A0951
:104F80001E461746435C0BF8013D56EA0703F1D174
:104F9000A9EB0B030593E1E6002840F0C0839906D6
:104FA00000F16783DA0600F1F1805B0640F1EE80E4
:104FB000079A136804320792BDF80C201A80B8E5EE
:104FC00007983D4A08960B920668782230210430F3
:104FD0008DF8392043F00203079000278DF8381030
:104FE00002229CE60896002899D08DF8375096E763
:104FF00098F80020002D7FF4D1AD01202025CDE5CB
:1050000043F0010398F80020C8E50896002840F016
:10501000938329490B919F0600F1E8820798DE06E9
:10502000014600F170825D0640F16D820431068810
:1050300007910027D80740F1228256EA070100F0C5
:105040001E8230218DF8392043F002038DF838108C
:10505000022264E60896002840F06B8317490B9102
:10506000D9E7079908960A688DF848204FF00000A4
:105070000A468DF83700043201200190079205900E
:105080000DF1480B0293002470E643F0400398F8BA
:10509000002083E598F800206C2A03BF98F80120CF
:1050A00043F0200308F1010843F0100376E500BF48
:1050B000308A4900408A4900F0894900DC8949006A
:1050C00007990E680A46002E02F10402FFF60FAEA1
:1050D000079298F8002061E598F8002001202B2520
:1050E0005CE507990896D1F800B04FF000028DF802
:1050F00037200E1DBBF1000F00F0E582671C00F0A9
:10510000C482224600215846019302F0F1F8019B27
:10511000002800F0E582A0EB0B02059207960293AF
:105120009DF83750002419E698F800202A2A08F143
:10513000010700F0E982A2F130010929B8464FF0D9
:1051400000043FF62DAD18F8012B04EB840401EBAD
:105150004404A2F130010929F5D921E543F02003E7
:1051600098F800201AE50896002840F0DB82002A13
:1051700000F0E78001218DF848204FF000020191F6
:105180008DF8372005910DF1480B7BE7079A1368DE
:1051900004320792039A1A60CBE40FAA04992046BE
:1051A000FFF74AFC002840F039811099119A01F16B
:1051B000010CCE46FFE51099119A481C9DF8375016
:1051C000002D3FF422AE01320DF1370501210728F1
:1051D00011921090CAF80050CAF8041040F30881E8
:1051E000002A40F0BC81099B002B3FF41FAE0EABA0
:1051F000022208461C931D92CA4601460AF1080A7B
:1052000001300A9B802B3FF419AE059BE41A002C59
:105210002EDD102CB34D1EDDD6461026069FDDF880
:1052200010A006E0881C0EF1080E1946103C102C48
:1052300010DD4B1C1032072B11928EE8600010938A
:10524000F0DD002A65D1103C102C4FF00100114612
:10525000CE46EEDCF246224407281192CAF80050EE
:10526000CAF80440109000F385800AF1080A013062
:105270000599CAF800B00A4407281192CAF8041028
:10528000109040F38280002A40F01881029B109217
:10529000580735D5089B01995C1A002C40F3E7802C
:1052A000CA46102C40F3188210998F4E069FDDF8E5
:1052B00010B0102506E0881C0AF1080A1946103CB7
:1052C000102C11DD4B1C1032072B1192CAF8006014
:1052D000CAF804501093EEDD42BB103C102C4FF086
:1052E00001001146CA46EDDC224407281192CAF893
:1052F0000060CAF80440109051DD002A40F09B8104
:10530000039B089A01998A42ACBF9B185B180393D0
:105310004EE00FAA51463846FFF78EFB002840F0BA
:105320003F811099119A481CCE467FE70FAA594633
:105330003846FFF781FB60B91099119A481CCA469C
:10534000BDE7119BDDF810B0002B40F0D4810023A5
:105350001093DBF8643013F0010FBBF80C3002D16E
:105360009A0540F1DE805B063FF5B2AC03982DB0A4
:10537000BDE8F08F002A40F00681059A1D920123B6
:105380001192CDF870B01093CA460AF1080A029B38
:10539000590704D5089B01995C1A002C81DC039BFA
:1053A000089901988142ACBF5B181B18039372BB2C
:1053B00000231093CA46FFF7BCBB0FAA04992046EE
:1053C000FFF73AFB50BB1099119A01F1010ECC4640
:1053D00048E5002A40F040819DF83710002900F090
:1053E0001B8101220DF1370110461D921C91CA4606
:1053F00001460AF1080A013007E5029B012A00F084
:105400009880022A0DD1029300260027B0E50FAA4A
:1054100004990698FFF710FB0028C9D0DDF810B0FA
:1054200097E7029300260027494600E05946F20814
:1054300042EA4772F80806F007030746164630337B
:1054400056EA070201F8013C01F1FF3BEED1029A56
:10545000D6077FF59DAD302B3FF49AAD023930234E
:105460000BF8013CA9EB010305938B4676E4039B03
:10547000089A8A42ACBF9B185B18039398E70222F4
:105480004DE4002F08BF0A2E52D3CB463046394692
:105490000A22002303F06AFC30320BF8012D30465B
:1054A000394600230A2203F061FC06460F4656EAFD
:1054B0000703EBD16CE50594CB464FE40FAA0499A2
:1054C0000698FFF7B9FA0028A8D1119ACA465EE7F4
:1054D0000FAA04990698FFF7AFFA00289ED1CA4692
:1054E000FFF7C0BB408A4900308A49000431166882
:1054F00007910122002712E407980146043106684B
:10550000079100270BE40E6804310791002791E50D
:1055100007990E680A46F717043207923046394653
:105520000FE5DBF8580001F04DFEBBF80C301AE730
:10553000029B02930DF1B00B303601230BF8416D45
:1055400005930BE40FAA04990698FFF775FA002853
:105550007FF464AF1099119A481CCA4651E60FAA0D
:1055600004990698FFF768FA00287FF457AF10995E
:10557000119A481CCA4648E4002A40F09180012054
:105580001146CA4641E60FAA04990698FFF754FA55
:1055900000287FF443AF1098119A0130CA4667E69D
:1055A000D346D6E6079E073626F0070202F1080129
:1055B000D2E9006707910122FFF7B1BB079E0736CA
:1055C00026F00706D6E9000106F108020792064612
:1055D0000F46B6E4079E073626F0070202F10801DF
:1055E000D2E9006707910022FFF799BB079E0736B3
:1055F00026F0070101F108000790D1E9006719E5DD
:10560000CB46FFF7ABBB2D25764267EB47078DF8FE
:1056100037500122FFF788BB099BB3B9114601201F
:10562000CA46F2E5DBF8580001F0CCFD4FF0FF333D
:105630000393FFF750BB0FAA04990698FFF7FCF9F4
:1056400000287FF4EBAE119AA9E60EAB02221C9360
:105650001D920120CA46D0E50FAA04990698FFF7CB
:10566000EBF900287FF4DAAE1099119A481CCA466B
:10567000A4E5079A03991368CD1708460432294612
:105680000792C3E90001FFF754BA58460796029300
:10569000FDF736FF002405909DF83750FFF75EBBFD
:1056A0000FAA04990698FFF7C7F900287FF4B6AE51
:1056B0001099119A481CCA46A7E51099119A204ED4
:1056C0000131FFF790BB062C28BF062405940796EE
:1056D0000194DFF870B0D5E41098194E013003E65C
:1056E00005949DF83750079602930446FFF736BBA2
:1056F0008646FFF7CEBB06980FAA5946FFF79CF9DE
:1057000000283FF424AE24E6079998F801200C689D
:10571000043144EAE474B8460791FFF73FBA8DF8C4
:1057200037503CE48DF8375021E58DF83750FFF7BE
:10573000F4BB8DF8375091E48DF8375069E400BF21
:10574000308A4900048A49002DE9F0410C46ADF544
:105750008D6D8989666EE589199621F002010646EC
:10576000E069ADF80C1017464FF48061626AADF83D
:105770000E5098461AAD0023079016A8099206937A
:10578000009504950291059101F016FD43463A46B5
:1057900069463046FFF790F9051E07DB304669463B
:1057A00001F0E8F8002818BF4FF0FF35BDF80C30C5
:1057B0005B0603D5A38943F04003A381169801F04B
:1057C000FDFC28460DF58D6DBDE8F08138B5304BF8
:1057D0001B6805460C4613B19A6B002A38D0B4F901
:1057E0000C2093B218070CD52069A8B113F0010260
:1057F0001ED0636900225B42A361A260F0B1002069
:1058000038BDD9063CD5580726D4206942F0080394
:10581000A3819BB20028E9D103F42072B2F5007F86
:10582000E4D02846214601F0FDFCA3892069DDE78C
:10583000990758BF6269A2600028E0D1B4F90C3022
:105840001A06DDD543F04003A3814FF0FF3038BD89
:10585000184601F0E7F8C2E7216B51B104F14003AB
:10586000994204D0284601F003FAB4F90C20002331
:10587000236300232069636022F024022060C5E7CF
:1058800042F0400209232B604FF0FF30A28138BD67
:1058900044014020024B13B1024800F005B87047A4
:1058A00000000000956A4000002301461A46184691
:1058B00002F074BC02690B69934200F38D802DE9FC
:1058C000F04F03F1FF3801F1140700F1140B57F802
:1058D00028205BF828304FEA880483B00132B3FBFC
:1058E000F2F90BEB0403009407EB040A0193B9F1FE
:1058F000000F39D000252E46BC46DE465CF8044B2E
:10590000DEF80030A2B209FB0255220C2C0C09FB78
:105910000242ADB2751B96B2C6EB134615FA83F37D
:1059200006EB23469BB243EA0643E2454FEA1245A3
:105930004EF8043B4FEA2646E0D2009B5BF803306A
:1059400093B9019C231F9B450CD254F8043C4BB9DE
:10595000A4F1080302E01A68043B1AB99B4508F158
:10596000FF38F8D3C0F81080044602F00DF8002884
:105970002EDB09F101095D46002357F8041B286856
:105980008AB29A1A0B0C12FA80F2C3EB104303EBA3
:10599000224392B242EA0342BA4545F8042B4FEA49
:1059A0002343EAD25BF828200BEB880382B91A1F45
:1059B00093450BD253F8042C42B9083B02E01A6815
:1059C000043B1AB99B4508F1FF38F8D3C4F810809E
:1059D000484603B0BDE8F08F00207047000000008B
:1059E0002DE9F04F016C9BB00446279E92469B46E2
:1059F00041B1426C4A60012393408B6001F0ECFDA1
:105A000000232364BBF1000F5D4635DB00233360C8
:105A10009D4BAB4315D0504659460022002303F05E
:105A200035F9804600282DD0269A01231360289B43
:105A3000002B00F0BD809548186001381BB0BDE810
:105A4000F08F269A42F20F731360BAF1000F0DD156
:105A5000C5F3130555B9289B8D48002BEED000F1F6
:105A60000803289A13601BB0BDE8F08F289B894873
:105A7000002BE3D0C31CF4E701232BF00045336077
:105A8000AB46C5E718AA19AB0192009352465B4694
:105A9000204602F019F82B0D814671D0CBF313028A
:105AA00042F07F51189FCDF850805046A3F2FF3648
:105AB00041F440110022784B02F0CCFC6CA3D3E9F6
:105AC000002302F07BFE6CA3D3E9002302F0C4FCA8
:105AD000CDE90201304602F00BFE69A3D3E90023B1
